{
  "address": "0xA439890593F96d23268eBEBd4553dDd0359E1Cc3",
  "abi": [
    {
      "inputs": [
        {
          "internalType": "address",
          "name": "_owner",
          "type": "address"
        },
        {
          "internalType": "address",
          "name": "_aavePoolAddress",
          "type": "address"
        },
        {
          "internalType": "address",
          "name": "_GHOAddress",
          "type": "address"
        },
        {
          "internalType": "address",
          "name": "_wethGatewayAddress",
          "type": "address"
        }
      ],
      "stateMutability": "nonpayable",
      "type": "constructor"
    },
    {
      "anonymous": false,
      "inputs": [
        {
          "indexed": true,
          "internalType": "address",
          "name": "to",
          "type": "address"
        },
        {
          "indexed": false,
          "internalType": "uint256",
          "name": "GHOamount",
          "type": "uint256"
        }
      ],
      "name": "AddBuilder",
      "type": "event"
    },
    {
      "anonymous": false,
      "inputs": [
        {
          "indexed": true,
          "internalType": "address",
          "name": "previousOwner",
          "type": "address"
        },
        {
          "indexed": true,
          "internalType": "address",
          "name": "newOwner",
          "type": "address"
        }
      ],
      "name": "OwnershipTransferred",
      "type": "event"
    },
    {
      "anonymous": false,
      "inputs": [
        {
          "indexed": true,
          "internalType": "address",
          "name": "to",
          "type": "address"
        },
        {
          "indexed": false,
          "internalType": "uint256",
          "name": "GHOamount",
          "type": "uint256"
        }
      ],
      "name": "UpdateBuilder",
      "type": "event"
    },
    {
      "anonymous": false,
      "inputs": [
        {
          "indexed": true,
          "internalType": "address",
          "name": "to",
          "type": "address"
        },
        {
          "indexed": false,
          "internalType": "uint256",
          "name": "GHOamount",
          "type": "uint256"
        },
        {
          "indexed": false,
          "internalType": "string",
          "name": "reason",
          "type": "string"
        }
      ],
      "name": "Withdraw",
      "type": "event"
    },
    {
      "inputs": [],
      "name": "GHO",
      "outputs": [
        {
          "internalType": "contract IERC20",
          "name": "",
          "type": "address"
        }
      ],
      "stateMutability": "view",
      "type": "function"
    },
    {
      "inputs": [],
      "name": "aavePool",
      "outputs": [
        {
          "internalType": "contract IPool",
          "name": "",
          "type": "address"
        }
      ],
      "stateMutability": "view",
      "type": "function"
    },
    {
      "inputs": [
        {
          "internalType": "address payable",
          "name": "_builder",
          "type": "address"
        },
        {
          "internalType": "uint256",
          "name": "_GHOcap",
          "type": "uint256"
        }
      ],
      "name": "addBuilderStream",
      "outputs": [],
      "stateMutability": "nonpayable",
      "type": "function"
    },
    {
      "inputs": [
        {
          "internalType": "address[]",
          "name": "_builders",
          "type": "address[]"
        },
        {
          "internalType": "uint256[]",
          "name": "_GHOcaps",
          "type": "uint256[]"
        }
      ],
      "name": "addBuilderStreamBatch",
      "outputs": [],
      "stateMutability": "nonpayable",
      "type": "function"
    },
    {
      "inputs": [
        {
          "internalType": "address[]",
          "name": "_builders",
          "type": "address[]"
        }
      ],
      "name": "allBuildersData",
      "outputs": [
        {
          "components": [
            {
              "internalType": "address",
              "name": "builderAddress",
              "type": "address"
            },
            {
              "internalType": "uint256",
              "name": "GHOcap",
              "type": "uint256"
            },
            {
              "internalType": "uint256",
              "name": "unlockedGHOAmount",
              "type": "uint256"
            }
          ],
          "internalType": "struct GhoFundStreams.BuilderData[]",
          "name": "",
          "type": "tuple[]"
        }
      ],
      "stateMutability": "view",
      "type": "function"
    },
    {
      "inputs": [
        {
          "internalType": "uint256",
          "name": "_GHOamount",
          "type": "uint256"
        }
      ],
      "name": "borrowGHO",
      "outputs": [],
      "stateMutability": "nonpayable",
      "type": "function"
    },
    {
      "inputs": [],
      "name": "frequency",
      "outputs": [
        {
          "internalType": "uint256",
          "name": "",
          "type": "uint256"
        }
      ],
      "stateMutability": "view",
      "type": "function"
    },
    {
      "inputs": [],
      "name": "owner",
      "outputs": [
        {
          "internalType": "address",
          "name": "",
          "type": "address"
        }
      ],
      "stateMutability": "view",
      "type": "function"
    },
    {
      "inputs": [],
      "name": "renounceOwnership",
      "outputs": [],
      "stateMutability": "nonpayable",
      "type": "function"
    },
    {
      "inputs": [
        {
          "internalType": "uint256",
          "name": "_GHOamount",
          "type": "uint256"
        },
        {
          "internalType": "string",
          "name": "_reason",
          "type": "string"
        }
      ],
      "name": "streamWithdraw",
      "outputs": [],
      "stateMutability": "nonpayable",
      "type": "function"
    },
    {
      "inputs": [
        {
          "internalType": "address",
          "name": "",
          "type": "address"
        }
      ],
      "name": "streamedBuilders",
      "outputs": [
        {
          "internalType": "uint256",
          "name": "GHOcap",
          "type": "uint256"
        },
        {
          "internalType": "uint256",
          "name": "last",
          "type": "uint256"
        }
      ],
      "stateMutability": "view",
      "type": "function"
    },
    {
      "inputs": [
        {
          "internalType": "address",
          "name": "newOwner",
          "type": "address"
        }
      ],
      "name": "transferOwnership",
      "outputs": [],
      "stateMutability": "nonpayable",
      "type": "function"
    },
    {
      "inputs": [
        {
          "internalType": "address",
          "name": "_builder",
          "type": "address"
        }
      ],
      "name": "unlockedBuilderAmount",
      "outputs": [
        {
          "internalType": "uint256",
          "name": "",
          "type": "uint256"
        }
      ],
      "stateMutability": "view",
      "type": "function"
    },
    {
      "inputs": [],
      "name": "wethGateway",
      "outputs": [
        {
          "internalType": "contract IWrappedTokenGatewayV3",
          "name": "",
          "type": "address"
        }
      ],
      "stateMutability": "view",
      "type": "function"
    },
    {
      "stateMutability": "payable",
      "type": "receive"
    }
  ],
  "transactionHash": "0x87ef6b8ad914761076156c6f25c6078d2b0cb8375c251f03f4fbbb65b4213823",
  "args": [
    "0x55b9CB0bCf56057010b9c471e7D42d60e1111EEa",
    "0x6Ae43d3271ff6888e7Fc43Fd7321a503ff738951",
    "0xc4bF5CbDaBE595361438F8c6a187bDc330539c60",
    "0x387d311e47e80b498169e6fb51d3193167d89F7D"
  ],
  "numDeployments": 4,
  "solcInputHash": "7b092ba39e35bc455be6f249de6d9bec",
  "bytecode": "0x608060405262278d006005553480156200001857600080fd5b50604051620011d6380380620011d68339810160408190526200003b91620001ee565b6200004633620000a0565b6200005c84620000f060201b620009981760201c565b600180546001600160a01b039485166001600160a01b031991821617909155600280549385169382169390931790925560038054919093169116179055506200024b565b600080546001600160a01b038381166001600160a01b0319831681178455604051919092169283917f8be0079c531659141344cd1fd0a4f28419497f9722a3daafe3b4186f6b6457e09190a35050565b620000fa62000173565b6001600160a01b038116620001655760405162461bcd60e51b815260206004820152602660248201527f4f776e61626c653a206e6577206f776e657220697320746865207a65726f206160448201526564647265737360d01b60648201526084015b60405180910390fd5b6200017081620000a0565b50565b6000546001600160a01b03163314620001cf5760405162461bcd60e51b815260206004820181905260248201527f4f776e61626c653a2063616c6c6572206973206e6f7420746865206f776e657260448201526064016200015c565b565b80516001600160a01b0381168114620001e957600080fd5b919050565b600080600080608085870312156200020557600080fd5b6200021085620001d1565b93506200022060208601620001d1565b92506200023060408601620001d1565b91506200024060608601620001d1565b905092959194509250565b610f7b806200025b6000396000f3fe6080604052600436106100e15760003560e01c8063a8397ddc1161007f578063d8c0ee7811610059578063d8c0ee78146102c3578063df6110d71461030c578063ead50da31461032c578063f2fde38b1461034257600080fd5b8063a8397ddc14610263578063b8d008f314610283578063c5e10eef146102a357600080fd5b806380c9b2f6116100bb57806380c9b2f6146101c357806382c2aff7146101f15780638da5cb5b14610211578063a03e4bc31461024357600080fd5b806347b3796714610158578063715018a6146101785780637c6f1b591461018d57600080fd5b366101535760035460015460405163474cf53d60e01b81526001600160a01b0391821660048201523060248201526000604482015291169063474cf53d9034906064016000604051808303818588803b15801561013d57600080fd5b505af1158015610151573d6000803e3d6000fd5b005b600080fd5b34801561016457600080fd5b50610151610173366004610baf565b610362565b34801561018457600080fd5b50610151610417565b34801561019957600080fd5b506101ad6101a8366004610c6a565b61042b565b6040516101ba9190610ca7565b60405180910390f35b3480156101cf57600080fd5b506101e36101de366004610d09565b61054e565b6040519081526020016101ba565b3480156101fd57600080fd5b5061015161020c366004610d26565b6105e1565b34801561021d57600080fd5b506000546001600160a01b03165b6040516001600160a01b0390911681526020016101ba565b34801561024f57600080fd5b5060015461022b906001600160a01b031681565b34801561026f57600080fd5b5061015161027e366004610d52565b61066c565b34801561028f57600080fd5b5060025461022b906001600160a01b031681565b3480156102af57600080fd5b5060035461022b906001600160a01b031681565b3480156102cf57600080fd5b506102f76102de366004610d09565b6004602052600090815260409020805460019091015482565b604080519283526020830191909152016101ba565b34801561031857600080fd5b50610151610327366004610df1565b61090e565b34801561033857600080fd5b506101e360055481565b34801561034e57600080fd5b5061015161035d366004610d09565b610998565b61036a610a11565b80518251146103b85760405162461bcd60e51b815260206004820152601560248201527413195b99dd1a1cc8185c99481b9bdd08195c5d585b605a1b60448201526064015b60405180910390fd5b60005b8251811015610412576104008382815181106103d9576103d9610e0a565b60200260200101518383815181106103f3576103f3610e0a565b60200260200101516105e1565b8061040a81610e36565b9150506103bb565b505050565b61041f610a11565b6104296000610a6b565b565b60606000825167ffffffffffffffff81111561044957610449610abb565b6040519080825280602002602001820160405280156104a757816020015b610494604051806060016040528060006001600160a01b0316815260200160008152602001600081525090565b8152602001906001900390816104675790505b50905060005b83518110156105475760008482815181106104ca576104ca610e0a565b6020908102919091018101516001600160a01b03811660008181526004845260409081902081516060810183529283528054948301949094529193509081016105128461054e565b81525084848151811061052757610527610e0a565b60200260200101819052505050808061053f90610e36565b9150506104ad565b5092915050565b6001600160a01b038116600090815260046020908152604080832081518083019092528054808352600190910154928201929092529082036105935750600092915050565b60055460208201516105a59042610e4f565b11156105b2575192915050565b60055460208201516105c49042610e4f565b82516105d09190610e68565b6105da9190610e7f565b9392505050565b6105e9610a11565b6040518060400160405280828152602001600554426106089190610e4f565b90526001600160a01b03831660008181526004602090815260409182902084518155938101516001909401939093555183815290917f49707f6097e3d8b2d861adf67aadfb41a45746f9d46701065ed09ff12f9e41c3910160405180910390a25050565b6002546040516370a0823160e01b815230600482015283916001600160a01b0316906370a0823190602401602060405180830381865afa1580156106b4573d6000803e3d6000fd5b505050506040513d601f19601f820116820180604052508101906106d89190610ea1565b10156107265760405162461bcd60e51b815260206004820152601e60248201527f4e6f7420656e6f7567682047484f20696e2074686520636f6e7472616374000060448201526064016103af565b33600090815260046020526040902080546107835760405162461bcd60e51b815260206004820152601c60248201527f4e6f206163746976652073747265616d20666f72206275696c6465720000000060448201526064016103af565b600061078e3361054e565b9050838110156107ee5760405162461bcd60e51b815260206004820152602560248201527f4e6f7420656e6f75676820756e6c6f636b65642047484f20696e207468652073604482015264747265616d60d81b60648201526084016103af565b6000600554426107fe9190610e4f565b9050808360010154101561081457600183018190555b81858460010154426108269190610e4f565b6108309190610e68565b61083a9190610e7f565b83600101546108499190610eba565b600184015560025460405163a9059cbb60e01b8152336004820152602481018790526001600160a01b039091169063a9059cbb906044016020604051808303816000875af115801561089f573d6000803e3d6000fd5b505050506040513d601f19601f820116820180604052508101906108c39190610ecd565b50336001600160a01b03167f485f1bb6524c663555797e00171a10f341656e59b02d6b557a0a38ba7d5d975186866040516108ff929190610eef565b60405180910390a25050505050565b610916610a11565b6001546002805460405163a415bcad60e01b81526001600160a01b039182166004820152602481018590526044810192909252600060648301523060848301529091169063a415bcad9060a401600060405180830381600087803b15801561097d57600080fd5b505af1158015610991573d6000803e3d6000fd5b5050505050565b6109a0610a11565b6001600160a01b038116610a055760405162461bcd60e51b815260206004820152602660248201527f4f776e61626c653a206e6577206f776e657220697320746865207a65726f206160448201526564647265737360d01b60648201526084016103af565b610a0e81610a6b565b50565b6000546001600160a01b031633146104295760405162461bcd60e51b815260206004820181905260248201527f4f776e61626c653a2063616c6c6572206973206e6f7420746865206f776e657260448201526064016103af565b600080546001600160a01b038381166001600160a01b0319831681178455604051919092169283917f8be0079c531659141344cd1fd0a4f28419497f9722a3daafe3b4186f6b6457e09190a35050565b634e487b7160e01b600052604160045260246000fd5b604051601f8201601f1916810167ffffffffffffffff81118282101715610afa57610afa610abb565b604052919050565b600067ffffffffffffffff821115610b1c57610b1c610abb565b5060051b60200190565b6001600160a01b0381168114610a0e57600080fd5b600082601f830112610b4c57600080fd5b81356020610b61610b5c83610b02565b610ad1565b82815260059290921b84018101918181019086841115610b8057600080fd5b8286015b84811015610ba4578035610b9781610b26565b8352918301918301610b84565b509695505050505050565b60008060408385031215610bc257600080fd5b823567ffffffffffffffff80821115610bda57600080fd5b610be686838701610b3b565b9350602091508185013581811115610bfd57600080fd5b85019050601f81018613610c1057600080fd5b8035610c1e610b5c82610b02565b81815260059190911b82018301908381019088831115610c3d57600080fd5b928401925b82841015610c5b57833582529284019290840190610c42565b80955050505050509250929050565b600060208284031215610c7c57600080fd5b813567ffffffffffffffff811115610c9357600080fd5b610c9f84828501610b3b565b949350505050565b602080825282518282018190526000919060409081850190868401855b82811015610cfc57815180516001600160a01b0316855286810151878601528501518585015260609093019290850190600101610cc4565b5091979650505050505050565b600060208284031215610d1b57600080fd5b81356105da81610b26565b60008060408385031215610d3957600080fd5b8235610d4481610b26565b946020939093013593505050565b60008060408385031215610d6557600080fd5b8235915060208084013567ffffffffffffffff80821115610d8557600080fd5b818601915086601f830112610d9957600080fd5b813581811115610dab57610dab610abb565b610dbd601f8201601f19168501610ad1565b91508082528784828501011115610dd357600080fd5b80848401858401376000848284010152508093505050509250929050565b600060208284031215610e0357600080fd5b5035919050565b634e487b7160e01b600052603260045260246000fd5b634e487b7160e01b600052601160045260246000fd5b600060018201610e4857610e48610e20565b5060010190565b81810381811115610e6257610e62610e20565b92915050565b8082028115828204841417610e6257610e62610e20565b600082610e9c57634e487b7160e01b600052601260045260246000fd5b500490565b600060208284031215610eb357600080fd5b5051919050565b80820180821115610e6257610e62610e20565b600060208284031215610edf57600080fd5b815180151581146105da57600080fd5b82815260006020604081840152835180604085015260005b81811015610f2357858101830151858201606001528201610f07565b506000606082860101526060601f19601f83011685010192505050939250505056fea26469706673582212200656ddaeb371167e5a15a409409bd60559c93a12969580d77fd72d4bad468bba64736f6c63430008110033",
  "devdoc": {
    "kind": "dev",
    "methods": {
      "owner()": {
        "details": "Returns the address of the current owner."
      },
      "renounceOwnership()": {
        "details": "Leaves the contract without owner. It will not be possible to call `onlyOwner` functions anymore. Can only be called by the current owner. NOTE: Renouncing ownership will leave the contract without an owner, thereby removing any functionality that is only available to the owner."
      },
      "transferOwnership(address)": {
        "details": "Transfers ownership of the contract to a new account (`newOwner`). Can only be called by the current owner."
      }
    },
    "version": 1
  },
  "userdoc": {
    "kind": "user",
    "methods": {},
    "version": 1
  },
  "storageLayout": {
    "storage": [
      {
        "astId": 1267,
        "contract": "contracts/GhoFundStreams.sol:GhoFundStreams",
        "label": "_owner",
        "offset": 0,
        "slot": "0",
        "type": "t_address"
      },
      {
        "astId": 1483,
        "contract": "contracts/GhoFundStreams.sol:GhoFundStreams",
        "label": "aavePool",
        "offset": 0,
        "slot": "1",
        "type": "t_contract(IPool)638"
      },
      {
        "astId": 1486,
        "contract": "contracts/GhoFundStreams.sol:GhoFundStreams",
        "label": "GHO",
        "offset": 0,
        "slot": "2",
        "type": "t_contract(IERC20)1450"
      },
      {
        "astId": 1489,
        "contract": "contracts/GhoFundStreams.sol:GhoFundStreams",
        "label": "wethGateway",
        "offset": 0,
        "slot": "3",
        "type": "t_contract(IWrappedTokenGatewayV3)1259"
      },
      {
        "astId": 1499,
        "contract": "contracts/GhoFundStreams.sol:GhoFundStreams",
        "label": "streamedBuilders",
        "offset": 0,
        "slot": "4",
        "type": "t_mapping(t_address,t_struct(BuilderStreamInfo)1494_storage)"
      },
      {
        "astId": 1502,
        "contract": "contracts/GhoFundStreams.sol:GhoFundStreams",
        "label": "frequency",
        "offset": 0,
        "slot": "5",
        "type": "t_uint256"
      }
    ],
    "types": {
      "t_address": {
        "encoding": "inplace",
        "label": "address",
        "numberOfBytes": "20"
      },
      "t_contract(IERC20)1450": {
        "encoding": "inplace",
        "label": "contract IERC20",
        "numberOfBytes": "20"
      },
      "t_contract(IPool)638": {
        "encoding": "inplace",
        "label": "contract IPool",
        "numberOfBytes": "20"
      },
      "t_contract(IWrappedTokenGatewayV3)1259": {
        "encoding": "inplace",
        "label": "contract IWrappedTokenGatewayV3",
        "numberOfBytes": "20"
      },
      "t_mapping(t_address,t_struct(BuilderStreamInfo)1494_storage)": {
        "encoding": "mapping",
        "key": "t_address",
        "label": "mapping(address => struct GhoFundStreams.BuilderStreamInfo)",
        "numberOfBytes": "32",
        "value": "t_struct(BuilderStreamInfo)1494_storage"
      },
      "t_struct(BuilderStreamInfo)1494_storage": {
        "encoding": "inplace",
        "label": "struct GhoFundStreams.BuilderStreamInfo",
        "members": [
          {
            "astId": 1491,
            "contract": "contracts/GhoFundStreams.sol:GhoFundStreams",
            "label": "GHOcap",
            "offset": 0,
            "slot": "0",
            "type": "t_uint256"
          },
          {
            "astId": 1493,
            "contract": "contracts/GhoFundStreams.sol:GhoFundStreams",
            "label": "last",
            "offset": 0,
            "slot": "1",
            "type": "t_uint256"
          }
        ],
        "numberOfBytes": "64"
      },
      "t_uint256": {
        "encoding": "inplace",
        "label": "uint256",
        "numberOfBytes": "32"
      }
    }
  }
}