{
  "address": "0xAF8F6cFb5BFdF5f030307AB01F95855749509209",
  "abi": [
    {
      "inputs": [
        {
          "internalType": "address",
          "name": "_owner",
          "type": "address"
        },
        {
          "internalType": "address",
          "name": "_aavePoolAddress",
          "type": "address"
        },
        {
          "internalType": "address",
          "name": "_GHOAddress",
          "type": "address"
        }
      ],
      "stateMutability": "nonpayable",
      "type": "constructor"
    },
    {
      "anonymous": false,
      "inputs": [
        {
          "indexed": true,
          "internalType": "address",
          "name": "to",
          "type": "address"
        },
        {
          "indexed": false,
          "internalType": "uint256",
          "name": "GHOamount",
          "type": "uint256"
        }
      ],
      "name": "AddBuilder",
      "type": "event"
    },
    {
      "anonymous": false,
      "inputs": [
        {
          "indexed": true,
          "internalType": "address",
          "name": "previousOwner",
          "type": "address"
        },
        {
          "indexed": true,
          "internalType": "address",
          "name": "newOwner",
          "type": "address"
        }
      ],
      "name": "OwnershipTransferred",
      "type": "event"
    },
    {
      "anonymous": false,
      "inputs": [
        {
          "indexed": true,
          "internalType": "address",
          "name": "to",
          "type": "address"
        },
        {
          "indexed": false,
          "internalType": "uint256",
          "name": "GHOamount",
          "type": "uint256"
        }
      ],
      "name": "UpdateBuilder",
      "type": "event"
    },
    {
      "anonymous": false,
      "inputs": [
        {
          "indexed": true,
          "internalType": "address",
          "name": "to",
          "type": "address"
        },
        {
          "indexed": false,
          "internalType": "uint256",
          "name": "GHOamount",
          "type": "uint256"
        },
        {
          "indexed": false,
          "internalType": "string",
          "name": "reason",
          "type": "string"
        }
      ],
      "name": "Withdraw",
      "type": "event"
    },
    {
      "inputs": [],
      "name": "GHO",
      "outputs": [
        {
          "internalType": "contract IERC20",
          "name": "",
          "type": "address"
        }
      ],
      "stateMutability": "view",
      "type": "function"
    },
    {
      "inputs": [],
      "name": "aavePool",
      "outputs": [
        {
          "internalType": "contract IPool",
          "name": "",
          "type": "address"
        }
      ],
      "stateMutability": "view",
      "type": "function"
    },
    {
      "inputs": [
        {
          "internalType": "address payable",
          "name": "_builder",
          "type": "address"
        },
        {
          "internalType": "uint256",
          "name": "_GHOcap",
          "type": "uint256"
        }
      ],
      "name": "addBuilderStream",
      "outputs": [],
      "stateMutability": "nonpayable",
      "type": "function"
    },
    {
      "inputs": [
        {
          "internalType": "address[]",
          "name": "_builders",
          "type": "address[]"
        },
        {
          "internalType": "uint256[]",
          "name": "_GHOcaps",
          "type": "uint256[]"
        }
      ],
      "name": "addBuilderStreamBatch",
      "outputs": [],
      "stateMutability": "nonpayable",
      "type": "function"
    },
    {
      "inputs": [
        {
          "internalType": "address[]",
          "name": "_builders",
          "type": "address[]"
        }
      ],
      "name": "allBuildersData",
      "outputs": [
        {
          "components": [
            {
              "internalType": "address",
              "name": "builderAddress",
              "type": "address"
            },
            {
              "internalType": "uint256",
              "name": "GHOcap",
              "type": "uint256"
            },
            {
              "internalType": "uint256",
              "name": "unlockedGHOAmount",
              "type": "uint256"
            }
          ],
          "internalType": "struct GhoFundStreams.BuilderData[]",
          "name": "",
          "type": "tuple[]"
        }
      ],
      "stateMutability": "view",
      "type": "function"
    },
    {
      "inputs": [
        {
          "internalType": "uint256",
          "name": "_GHOamount",
          "type": "uint256"
        }
      ],
      "name": "borrowGHO",
      "outputs": [],
      "stateMutability": "nonpayable",
      "type": "function"
    },
    {
      "inputs": [],
      "name": "frequency",
      "outputs": [
        {
          "internalType": "uint256",
          "name": "",
          "type": "uint256"
        }
      ],
      "stateMutability": "view",
      "type": "function"
    },
    {
      "inputs": [],
      "name": "owner",
      "outputs": [
        {
          "internalType": "address",
          "name": "",
          "type": "address"
        }
      ],
      "stateMutability": "view",
      "type": "function"
    },
    {
      "inputs": [],
      "name": "renounceOwnership",
      "outputs": [],
      "stateMutability": "nonpayable",
      "type": "function"
    },
    {
      "inputs": [
        {
          "internalType": "uint256",
          "name": "_GHOamount",
          "type": "uint256"
        },
        {
          "internalType": "string",
          "name": "_reason",
          "type": "string"
        }
      ],
      "name": "streamWithdraw",
      "outputs": [],
      "stateMutability": "nonpayable",
      "type": "function"
    },
    {
      "inputs": [
        {
          "internalType": "address",
          "name": "",
          "type": "address"
        }
      ],
      "name": "streamedBuilders",
      "outputs": [
        {
          "internalType": "uint256",
          "name": "GHOcap",
          "type": "uint256"
        },
        {
          "internalType": "uint256",
          "name": "last",
          "type": "uint256"
        }
      ],
      "stateMutability": "view",
      "type": "function"
    },
    {
      "inputs": [
        {
          "internalType": "address",
          "name": "newOwner",
          "type": "address"
        }
      ],
      "name": "transferOwnership",
      "outputs": [],
      "stateMutability": "nonpayable",
      "type": "function"
    },
    {
      "inputs": [
        {
          "internalType": "address",
          "name": "_builder",
          "type": "address"
        }
      ],
      "name": "unlockedBuilderAmount",
      "outputs": [
        {
          "internalType": "uint256",
          "name": "",
          "type": "uint256"
        }
      ],
      "stateMutability": "view",
      "type": "function"
    },
    {
      "stateMutability": "payable",
      "type": "receive"
    }
  ],
  "transactionHash": "0x90755636a8b81a16426a7b83fff9a912edf233db3eaafc64f7003077a5b05ee7",
  "args": [
    "0x55b9CB0bCf56057010b9c471e7D42d60e1111EEa",
    "0x6Ae43d3271ff6888e7Fc43Fd7321a503ff738951",
    "0xc4bF5CbDaBE595361438F8c6a187bDc330539c60"
  ],
  "numDeployments": 1,
  "solcInputHash": "ad74b777c5a6008bdb55902ff99beb2e",
  "bytecode": "0x608060405262278d006004553480156200001857600080fd5b5060405162001177380380620011778339810160408190526200003b91620001dd565b62000046336200008f565b6200005c83620000df60201b6200095d1760201c565b600180546001600160a01b039384166001600160a01b031991821617909155600280549290931691161790555062000227565b600080546001600160a01b038381166001600160a01b0319831681178455604051919092169283917f8be0079c531659141344cd1fd0a4f28419497f9722a3daafe3b4186f6b6457e09190a35050565b620000e962000162565b6001600160a01b038116620001545760405162461bcd60e51b815260206004820152602660248201527f4f776e61626c653a206e6577206f776e657220697320746865207a65726f206160448201526564647265737360d01b60648201526084015b60405180910390fd5b6200015f816200008f565b50565b6000546001600160a01b03163314620001be5760405162461bcd60e51b815260206004820181905260248201527f4f776e61626c653a2063616c6c6572206973206e6f7420746865206f776e657260448201526064016200014b565b565b80516001600160a01b0381168114620001d857600080fd5b919050565b600080600060608486031215620001f357600080fd5b620001fe84620001c0565b92506200020e60208501620001c0565b91506200021e60408501620001c0565b90509250925092565b610f4080620002376000396000f3fe6080604052600436106100c65760003560e01c8063a03e4bc31161007f578063d8c0ee7811610059578063d8c0ee781461028a578063df6110d7146102d3578063ead50da3146102f3578063f2fde38b1461030957600080fd5b8063a03e4bc31461022a578063a8397ddc1461024a578063b8d008f31461026a57600080fd5b806347b379671461013f578063715018a61461015f5780637c6f1b591461017457806380c9b2f6146101aa57806382c2aff7146101d85780638da5cb5b146101f857600080fd5b3661013a5760015460405163617ba03760e01b815260006004820181905234602483015230604483015260648201526001600160a01b039091169063617ba03790608401600060405180830381600087803b15801561012457600080fd5b505af1158015610138573d6000803e3d6000fd5b005b600080fd5b34801561014b57600080fd5b5061013861015a366004610b74565b610329565b34801561016b57600080fd5b506101386103de565b34801561018057600080fd5b5061019461018f366004610c2f565b6103f2565b6040516101a19190610c6c565b60405180910390f35b3480156101b657600080fd5b506101ca6101c5366004610cce565b610515565b6040519081526020016101a1565b3480156101e457600080fd5b506101386101f3366004610ceb565b6105a8565b34801561020457600080fd5b506000546001600160a01b03165b6040516001600160a01b0390911681526020016101a1565b34801561023657600080fd5b50600154610212906001600160a01b031681565b34801561025657600080fd5b50610138610265366004610d17565b610633565b34801561027657600080fd5b50600254610212906001600160a01b031681565b34801561029657600080fd5b506102be6102a5366004610cce565b6003602052600090815260409020805460019091015482565b604080519283526020830191909152016101a1565b3480156102df57600080fd5b506101386102ee366004610db6565b6108d5565b3480156102ff57600080fd5b506101ca60045481565b34801561031557600080fd5b50610138610324366004610cce565b61095d565b6103316109d6565b805182511461037f5760405162461bcd60e51b815260206004820152601560248201527413195b99dd1a1cc8185c99481b9bdd08195c5d585b605a1b60448201526064015b60405180910390fd5b60005b82518110156103d9576103c78382815181106103a0576103a0610dcf565b60200260200101518383815181106103ba576103ba610dcf565b60200260200101516105a8565b806103d181610dfb565b915050610382565b505050565b6103e66109d6565b6103f06000610a30565b565b60606000825167ffffffffffffffff81111561041057610410610a80565b60405190808252806020026020018201604052801561046e57816020015b61045b604051806060016040528060006001600160a01b0316815260200160008152602001600081525090565b81526020019060019003908161042e5790505b50905060005b835181101561050e57600084828151811061049157610491610dcf565b6020908102919091018101516001600160a01b03811660008181526003845260409081902081516060810183529283528054948301949094529193509081016104d984610515565b8152508484815181106104ee576104ee610dcf565b60200260200101819052505050808061050690610dfb565b915050610474565b5092915050565b6001600160a01b0381166000908152600360209081526040808320815180830190925280548083526001909101549282019290925290820361055a5750600092915050565b600454602082015161056c9042610e14565b1115610579575192915050565b600454602082015161058b9042610e14565b82516105979190610e2d565b6105a19190610e44565b9392505050565b6105b06109d6565b6040518060400160405280828152602001600454426105cf9190610e14565b90526001600160a01b03831660008181526003602090815260409182902084518155938101516001909401939093555183815290917f49707f6097e3d8b2d861adf67aadfb41a45746f9d46701065ed09ff12f9e41c3910160405180910390a25050565b6002546040516370a0823160e01b815230600482015283916001600160a01b0316906370a0823190602401602060405180830381865afa15801561067b573d6000803e3d6000fd5b505050506040513d601f19601f8201168201806040525081019061069f9190610e66565b10156106ed5760405162461bcd60e51b815260206004820152601e60248201527f4e6f7420656e6f7567682047484f20696e2074686520636f6e747261637400006044820152606401610376565b336000908152600360205260409020805461074a5760405162461bcd60e51b815260206004820152601c60248201527f4e6f206163746976652073747265616d20666f72206275696c646572000000006044820152606401610376565b600061075533610515565b9050838110156107b55760405162461bcd60e51b815260206004820152602560248201527f4e6f7420656e6f75676820756e6c6f636b65642047484f20696e207468652073604482015264747265616d60d81b6064820152608401610376565b6000600454426107c59190610e14565b905080836001015410156107db57600183018190555b81858460010154426107ed9190610e14565b6107f79190610e2d565b6108019190610e44565b83600101546108109190610e7f565b600184015560025460405163a9059cbb60e01b8152336004820152602481018790526001600160a01b039091169063a9059cbb906044016020604051808303816000875af1158015610866573d6000803e3d6000fd5b505050506040513d601f19601f8201168201806040525081019061088a9190610e92565b50336001600160a01b03167f485f1bb6524c663555797e00171a10f341656e59b02d6b557a0a38ba7d5d975186866040516108c6929190610eb4565b60405180910390a25050505050565b6108dd6109d6565b6001805460025460405163a415bcad60e01b81526001600160a01b03918216600482015260248101859052604481019390935260006064840152306084840152169063a415bcad9060a401600060405180830381600087803b15801561094257600080fd5b505af1158015610956573d6000803e3d6000fd5b5050505050565b6109656109d6565b6001600160a01b0381166109ca5760405162461bcd60e51b815260206004820152602660248201527f4f776e61626c653a206e6577206f776e657220697320746865207a65726f206160448201526564647265737360d01b6064820152608401610376565b6109d381610a30565b50565b6000546001600160a01b031633146103f05760405162461bcd60e51b815260206004820181905260248201527f4f776e61626c653a2063616c6c6572206973206e6f7420746865206f776e65726044820152606401610376565b600080546001600160a01b038381166001600160a01b0319831681178455604051919092169283917f8be0079c531659141344cd1fd0a4f28419497f9722a3daafe3b4186f6b6457e09190a35050565b634e487b7160e01b600052604160045260246000fd5b604051601f8201601f1916810167ffffffffffffffff81118282101715610abf57610abf610a80565b604052919050565b600067ffffffffffffffff821115610ae157610ae1610a80565b5060051b60200190565b6001600160a01b03811681146109d357600080fd5b600082601f830112610b1157600080fd5b81356020610b26610b2183610ac7565b610a96565b82815260059290921b84018101918181019086841115610b4557600080fd5b8286015b84811015610b69578035610b5c81610aeb565b8352918301918301610b49565b509695505050505050565b60008060408385031215610b8757600080fd5b823567ffffffffffffffff80821115610b9f57600080fd5b610bab86838701610b00565b9350602091508185013581811115610bc257600080fd5b85019050601f81018613610bd557600080fd5b8035610be3610b2182610ac7565b81815260059190911b82018301908381019088831115610c0257600080fd5b928401925b82841015610c2057833582529284019290840190610c07565b80955050505050509250929050565b600060208284031215610c4157600080fd5b813567ffffffffffffffff811115610c5857600080fd5b610c6484828501610b00565b949350505050565b602080825282518282018190526000919060409081850190868401855b82811015610cc157815180516001600160a01b0316855286810151878601528501518585015260609093019290850190600101610c89565b5091979650505050505050565b600060208284031215610ce057600080fd5b81356105a181610aeb565b60008060408385031215610cfe57600080fd5b8235610d0981610aeb565b946020939093013593505050565b60008060408385031215610d2a57600080fd5b8235915060208084013567ffffffffffffffff80821115610d4a57600080fd5b818601915086601f830112610d5e57600080fd5b813581811115610d7057610d70610a80565b610d82601f8201601f19168501610a96565b91508082528784828501011115610d9857600080fd5b80848401858401376000848284010152508093505050509250929050565b600060208284031215610dc857600080fd5b5035919050565b634e487b7160e01b600052603260045260246000fd5b634e487b7160e01b600052601160045260246000fd5b600060018201610e0d57610e0d610de5565b5060010190565b81810381811115610e2757610e27610de5565b92915050565b8082028115828204841417610e2757610e27610de5565b600082610e6157634e487b7160e01b600052601260045260246000fd5b500490565b600060208284031215610e7857600080fd5b5051919050565b80820180821115610e2757610e27610de5565b600060208284031215610ea457600080fd5b815180151581146105a157600080fd5b82815260006020604081840152835180604085015260005b81811015610ee857858101830151858201606001528201610ecc565b506000606082860101526060601f19601f83011685010192505050939250505056fea264697066735822122031b30bd6fe0b3464a0fe84c19f0dbad62be51676ce171db7f434c2b7e2197c3a64736f6c63430008110033",
  "devdoc": {
    "kind": "dev",
    "methods": {
      "owner()": {
        "details": "Returns the address of the current owner."
      },
      "renounceOwnership()": {
        "details": "Leaves the contract without owner. It will not be possible to call `onlyOwner` functions anymore. Can only be called by the current owner. NOTE: Renouncing ownership will leave the contract without an owner, thereby removing any functionality that is only available to the owner."
      },
      "transferOwnership(address)": {
        "details": "Transfers ownership of the contract to a new account (`newOwner`). Can only be called by the current owner."
      }
    },
    "version": 1
  },
  "userdoc": {
    "kind": "user",
    "methods": {},
    "version": 1
  },
  "storageLayout": {
    "storage": [
      {
        "astId": 1207,
        "contract": "contracts/GhoFundStreams.sol:GhoFundStreams",
        "label": "_owner",
        "offset": 0,
        "slot": "0",
        "type": "t_address"
      },
      {
        "astId": 1422,
        "contract": "contracts/GhoFundStreams.sol:GhoFundStreams",
        "label": "aavePool",
        "offset": 0,
        "slot": "1",
        "type": "t_contract(IPool)638"
      },
      {
        "astId": 1425,
        "contract": "contracts/GhoFundStreams.sol:GhoFundStreams",
        "label": "GHO",
        "offset": 0,
        "slot": "2",
        "type": "t_contract(IERC20)1390"
      },
      {
        "astId": 1435,
        "contract": "contracts/GhoFundStreams.sol:GhoFundStreams",
        "label": "streamedBuilders",
        "offset": 0,
        "slot": "3",
        "type": "t_mapping(t_address,t_struct(BuilderStreamInfo)1430_storage)"
      },
      {
        "astId": 1438,
        "contract": "contracts/GhoFundStreams.sol:GhoFundStreams",
        "label": "frequency",
        "offset": 0,
        "slot": "4",
        "type": "t_uint256"
      }
    ],
    "types": {
      "t_address": {
        "encoding": "inplace",
        "label": "address",
        "numberOfBytes": "20"
      },
      "t_contract(IERC20)1390": {
        "encoding": "inplace",
        "label": "contract IERC20",
        "numberOfBytes": "20"
      },
      "t_contract(IPool)638": {
        "encoding": "inplace",
        "label": "contract IPool",
        "numberOfBytes": "20"
      },
      "t_mapping(t_address,t_struct(BuilderStreamInfo)1430_storage)": {
        "encoding": "mapping",
        "key": "t_address",
        "label": "mapping(address => struct GhoFundStreams.BuilderStreamInfo)",
        "numberOfBytes": "32",
        "value": "t_struct(BuilderStreamInfo)1430_storage"
      },
      "t_struct(BuilderStreamInfo)1430_storage": {
        "encoding": "inplace",
        "label": "struct GhoFundStreams.BuilderStreamInfo",
        "members": [
          {
            "astId": 1427,
            "contract": "contracts/GhoFundStreams.sol:GhoFundStreams",
            "label": "GHOcap",
            "offset": 0,
            "slot": "0",
            "type": "t_uint256"
          },
          {
            "astId": 1429,
            "contract": "contracts/GhoFundStreams.sol:GhoFundStreams",
            "label": "last",
            "offset": 0,
            "slot": "1",
            "type": "t_uint256"
          }
        ],
        "numberOfBytes": "64"
      },
      "t_uint256": {
        "encoding": "inplace",
        "label": "uint256",
        "numberOfBytes": "32"
      }
    }
  }
}